{
  "transactions": [
    {
      "hash": "0xfd7031fb25724e45ed9a3df7ba352ccfc185373afbf5e27fb8873b696a9fd811",
      "transactionType": "CALL",
      "contractName": null,
      "contractAddress": "0x379049b8d8dc103551bcf5b22c97c1164e898757",
      "function": "approve(address,uint256)",
      "arguments": [
        "0x858646372CC42E1A627fcE94aa7A7033e7CF075A",
        "115792089237316195423570985008687907853269984665640564039457584007913129639935"
      ],
      "transaction": {
        "from": "0x8f14fecd0b3c592baa45e02d7c7a95c891730fcc",
        "to": "0x379049b8d8dc103551bcf5b22c97c1164e898757",
        "gas": "0xfbda",
        "value": "0x0",
        "input": "0x095ea7b3000000000000000000000000858646372cc42e1a627fce94aa7a7033e7cf075affffffffffffffffffffffffffffffffffffffffffffffffffffffffffffffff",
        "nonce": "0x1b",
        "chainId": "0x1"
      },
      "additionalContracts": [],
      "isFixedGasLimit": false
    }
  ],
  "receipts": [
    {
      "status": "0x1",
      "cumulativeGasUsed": "0x488ade",
      "logs": [
        {
          "address": "0x379049b8d8dc103551bcf5b22c97c1164e898757",
          "topics": [
            "0x8c5be1e5ebec7d5bd14f71427d1e84f3dd0314c0f7b2291e5b200ac8c7c3b925",
            "0x0000000000000000000000008f14fecd0b3c592baa45e02d7c7a95c891730fcc",
            "0x000000000000000000000000858646372cc42e1a627fce94aa7a7033e7cf075a"
          ],
          "data": "0xffffffffffffffffffffffffffffffffffffffffffffffffffffffffffffffff",
          "blockHash": "0x76a1dd033fb019e63b7c857d3236b09305fbf19329843a0cea208505b360b337",
          "blockNumber": "0x14cffe8",
          "transactionHash": "0xfd7031fb25724e45ed9a3df7ba352ccfc185373afbf5e27fb8873b696a9fd811",
          "transactionIndex": "0x4f",
          "logIndex": "0x5f",
          "removed": false
        }
      ],
      "logsBloom": "0x00000000000000000000000000000000000000000000000000000000000000100000000000000000000000000000000000000000000000000000000000200000000000002000000000000000000000000000000000000000000000008000000000000000000000000000000000100000000000000000000000000000000000000000000000000010000000010000000200000000000000000000000000000000020000000000000000000080000000000000000000000000000000000000000000000000000000000000000000000000000000000000000000001000000000000010000000000000000000000000000000000000000000000000000000000000",
      "type": "0x2",
      "transactionHash": "0xfd7031fb25724e45ed9a3df7ba352ccfc185373afbf5e27fb8873b696a9fd811",
      "transactionIndex": "0x4f",
      "blockHash": "0x76a1dd033fb019e63b7c857d3236b09305fbf19329843a0cea208505b360b337",
      "blockNumber": "0x14cffe8",
      "gasUsed": "0xb657",
      "effectiveGasPrice": "0x405cd067",
      "from": "0x8f14fecd0b3c592baa45e02d7c7a95c891730fcc",
      "to": "0x379049b8d8dc103551bcf5b22c97c1164e898757",
      "contractAddress": null
    }
  ],
  "libraries": [],
  "pending": [],
  "returns": {},
  "timestamp": 1739279101,
  "chain": 1,
  "commit": "4b28f45"
}